:0400000085EF00F098
:100008002E0F2E0F2E0F2E0F2E0F2E0FC50D2E0F6B
:100018002E0F2E0F2E0F2E0F2E0F2E0F2E0F2E0FF0
:100028002E0F2E0F2E0F2E0F2E0F2E0F2E0F2E0FE0
:100038002E0F2E0F2E0F2E0F2E0F2E0F2E0F2E0FD0
:100048002E0F2E0F2E0F2E0F2E0F2E0F2E0F2E0FC0
:100058002E0F2E0F2E0F2E0F2E0F2E0F2E0F2E0FB0
:100068002E0F2E0F2E0F2E0F2E0F2E0F2E0F2E0FA0
:100078002E0F2E0F2E0F2E0F42002E0F2E0F2E0F8B
:100088002E0F2E0F2E0F2E0F2E0F2E0F2E0F2E0F80
:100098002E0F2E0F2E0F2E0F42002E0F2E0F2E0F6B
:1000A8002E0F2E0F2E0F2E0F2E0F2E0F2E0F2E0F60
:1000B8002E0F2E0F2E0F2E0F2E0F2E0F2E0F2E0F50
:1000C8002E0F2E0F2E0F2E0F2E0F2E0F2E0F2E0F40
:1000D8002E0F2E0F2E0F2E0F2E0F2E0F2E0F2E0F30
:1000E80042002E0F2E0F2E0F2E0F2E0F2E0F2E0F1B
:1000F8002E0F2E0F2E0F2E0F2E0F2E0F2E0F2E0F10
:06010800FF0053EF1DF0A3
:10370000000001020304050607080C1014182030FD
:10371000405001006100E8F35AF56100ECF35BF5FD
:1037200001011DAF96EF1BF098EF1BF0A7EF1BF008
:1037300002D8A5EF1BF00500FA6E1350FD6E145071
:10374000FE6E1550FF6EFA50120001011D9F1DAD57
:10375000ACEF1BF0AEEF1BF0BDEF1BF002D8BBEFE0
:103760001BF00500FA6E1050FD6E1150FE6E1250E7
:10377000FF6EFA50120001011D9D1DABC2EF1BF040
:10378000C4EF1BF0D3EF1BF002D8D1EF1BF0050004
:10379000FA6E0D50FD6E0E50FE6E0F50FF6EFA5019
:1037A000120001011D9B1CA7D8EF1BF0DAEF1BF0E4
:1037B000E9EF1BF002D8E7EF1BF00500FA6E0A50A4
:1037C000FD6E0B50FE6E0C50FF6EFA5012000101A0
:1037D0001C971DA9EEEF1BF0F0EF1BF0FFEF1BF0A5
:1037E00002D8FDEF1BF00500FA6E0750FD6E085081
:1037F000FE6E0950FF6EFA50120001011D991DA5C1
:1038000004EF1CF006EF1CF024EF1CF002D813EFBD
:103810001CF00500FA6E0450FD6E0550FE6E065059
:10382000FF6EFA501200010154A919EF1CF01BEFB2
:103830001CF01CEF1CF0549960A921EF1CF023EF41
:103840001CF024EF1CF060991DA729EF1CF02BEF52
:103850001CF049EF1CF002D838EF1CF00500FA6E9E
:103860000150FD6E0250FE6E0350FF6EFA501200C2
:1038700001016CA73EEF1CF040EF1CF041EF1CF083
:103880006C9778A746EF1CF048EF1CF049EF1CF04E
:103890007897AE9C61006CF5FBF4610068F5FAF472
:1038A00011000501626F000E0501616F4DEC1EF005
:1038B0000501606F040E6019D8B461EF1CF063EF6E
:1038C0001CF074EF1CF06205D8B469EF1CF06BEFCC
:1038D0001CF074EF1CF0040E6219D8A472EF1CF0F7
:1038E00074EF1CF099EF1CF00101035105016219FE
:1038F000F80B62190101036F8BEF1CF001011DA988
:1039000084EF1CF086EF1CF08BEF1CF0020E05011B
:10391000616F9BEF1CF00239E832070B0501621959
:10392000D8A495EF1CF097EF1CF07EEF1CF09BEFF6
:103930001CF0010E616F61511200B20E0501606F43
:103940003C0E616F000E626F38EC1EF0B40E050184
:10395000606F3C0E616F000E626F3FEC1EF0B60EA2
:103960000501606F3C0E616F000E626F46EC1EF049
:10397000B00E0501606F3C0E616F000E626F31EC9E
:103980001EF0AC0E0501606F3C0E616F000E626FA1
:1039900023EC1EF0AA0E0501606F3C0E616F000E55
:1039A000626F1CEC1EF0AE0E0501606F3C0E616F85
:1039B000000E626F2AEC1EF0AE9C000E01011C6F1F
:1039C000000E1D6F080E1E6FFC0E1F6F9E8C1200E6
:1039D000000EC26E000EC16E000EBE6E000EBF6EF7
:1039E000000EC06E070ECA6EC668C768C868FD0EB6
:1039F000C96EFC0E0401186F10690869070E206F6C
:103A00000069030E196F000E216F000E096F000E82
:103A1000016F000E116F000E226F000E026F000E7C
:103A20000A6F000E126F000E1A6F03690B6913699B
:103A30001B69070E236F04690C6914691C690F0E5A
:103A4000246F180E02013D6F460E1A6F120001011D
:103A5000018F040E51EC1CF00009D8A432EF1DF0C8
:103A600034EF1DF052EF1DF0000E01014C6F380EC7
:103A70004D6F000E4E6F000E4F6F600E006F870E81
:103A8000016F100E026FA8EC1DF0E5EC1DF0F7ECD5
:103A90001DF054EC1EF092EC1DF09DEC1CF0000E9D
:103AA00051EC1CF01200A40EF66E3C0EF76E000EE8
:103AB000F86E01EE56F110EE04F00900F5C4EEF4D4
:103AC000E550E150FAE101EE01F1550EEE6AE8062B
:103AD000FDE10401080E5D6F000E5E6F000E5F6F6A
:103AE000000114EF1EF0D68A000ED6BE010E5C6EE9
:103AF000D69E550E0401596FAA0E596F5991000EAA
:103B00005F6F000E5E6F080E5D6F550E596FAA0E47
:103B1000596F59815CB002D0D69E01D0D68E030178
:103B2000628D1200000E5C6E5C50020D570EF32485
:103B3000D96E050EF420DA6E000EDF6E5C2A010EDF
:103B40005C64A5EF1DF0A7EF1DF094EF1DF01200CF
:103B5000070E0101046F070E056F1E0E066F000EA3
:103B6000076F030E086F030E096F0E0E0A6F000E2B
:103B70000B6F0F0E0D6F020E0E6F1200000E000184
:103B8000606F000E616F000E626F000E636F000EBB
:103B9000646F000E656F000E666F000E676F000E9B
:103BA000686F1200200E0001AD6F000EAF6F010EA6
:103BB000B36F080EB16F000EB06FB2A1E2EF1DF04F
:103BC000E4EF1DF0DDEF1DF01200100E0101506F4B
:103BD000040E516F600E526FE50E536F900E5C6FC6
:103BE000040E5D6F600E5E6FE50E5F6F1200080ED3
:103BF0000101686F040E696F600E6A6FE50E6B6FEE
:103C0000080E746F040E756F600E766FE50E776F99
:103C1000120073EC1DF0BEEC1DF0E8EC1CF0D2ECD1
:103C20001DF027EC1DF0120009EC1EF0D68ED68C8C
:103C300018EF1EF085EF00F060C504F561C505F5CD
:103C400062C506F5120060C507F561C508F562C5D5
:103C500009F5120060C501F561C502F562C503F5FD
:103C6000120060C50AF561C50BF562C50CF51200BE
:103C700060C513F561C514F562C515F5120060C580
:103C800010F561C511F562C512F5120060C50DF59C
:103C900061C50EF562C50FF5120001010239E83267
:103CA000070B1200020003001200120012001200A3
:0A3CB00012001200120012001100B1
:020000040020DA
:10000000FF0FFF0FFF0FFF0FFF0FFF0FFF0FFF0F80
:10001000FF0FFF0FFF0FFF0FFF0FFF0FFF0FFF0F70
:10002000FF0FFF0FFF0FFF0FFF0FFF0FFF0FFF0F60
:10003000FF0FFF0FFF0FFF0FFF0FFF0FFF0FFF0F50
:020000040030CA
:10000000AFEFFFFF9FFFFFFFFFFFFFFFFFFFFFFFC0
:10001000FFFFFFFFFFFFFFFFFFFFFFFFFFFFFFFFF0
:04002000FFFFFFFFE0
:00000001FF
