:020000040000fa
:020000041fc516
:045f8c0000001844b5
:020000040000fa
:020000041fc516
:045f900030fe605f20
:020000040000fa
:020000041fc516
:045f940031dc0000fc
:020000040000fa
:020000041fc516
:045f98000100802064
:020000040000fa
:020000041fc516
:045f9c0008000000f9
:020000040000fa
:020000041fc516
:045fbc00ffffffffe5
:020000040000fa
:020000041fc01b
:100000000300001000000000f0f3060000000000f4
:100010000600f00f0000000000601a40c0045a7f84
:10002000050040130000000000901a3c64165a2797
:10003000080040030000000004801d3cf8ffbd27bd
:1000400000801c3cf07f9c27026009402058200162
:1000500007000a248449497d02608940c0000000ed
:1000600000e0dc41ffff4a25faff401500000000d8
:1000700002608b40c00000000090083c7c16082500
:1000800009f80001000000000090083cd411082588
:1000900009f80001000000000080083c4c00082521
:1000a0000080093c780029250300001000000000b2
:1000b000000000ad040008252b080901fcff2014f6
:1000c00000000000c0bf083c7005082509f80001c9
:1000d000000000000090083c9012082509f800017b
:1000e0000000000081bf093c00000a3c00024a25d4
:1000f000e0072aad0000093c00002925010020117d
:100100000000000000488040ffff0a2400588a4099
:100110004000083c00600a4025500a0100608a4007
:100120000090093c00002925c000000001788940aa
:100130000000093c0100292500000a2444492a7dc9
:1001400001608a408000093c0068894000800840c6
:100150008005097d404c0900006008405800013cc2
:100160002440010100010a3c2540480125402801a6
:1001700000608840c00000000090083c84160825fc
:1001800009f800010000000000600840bfff013cca
:10019000ffff2134244001010060884000008430ca
:1001a0000000a5300090083cf0140825080000016c
:0401b000000000004b
:020000040000fa
:020000041fc01b
:1003800000901a3c1c165a27080040030000000089
:020000040000fa
:020000041fc01b
:1004b0000080094000000a2400000b2400000d24e5
:1004c00000000e240080013c244021012500001181
:1004d00001800940000000003800013c2440210157
:1004e000c24408000f0000110000000001000825b0
:1004f0000700013c2460210102640c0001008c25ee
:100500002550800101000b2404580b0104500a01fe
:10051000c001013c24402101824508000600082555
:1005200004500a01001c2831824208000d0000110d
:10053000000000000100082580032f31c2790f0060
:100540000100ef252568e00101000e2404700e0172
:1005500004680d0100e02831424308000600082528
:1005600004680d010800e003000000000000000026
:100570000080084007000924244828010200293986
:1005800004002011000000000800e003000000004b
:10059000000000002518e003c5ff11040000000062
:1005a00000600840feff0924244828010400293582
:1005b00000608940c000000000d0804000e0804022
:1005c000c00000000090043c00008424010080145e
:1005d000009d043c0400401121288a0021208b004a
:1005e000feff8514fcff88bc0080043c00008424ce
:1005f000010080140080043c0400a01121288d001b
:1006000021208e00feff8514fcff89bc0f00000036
:100610000080013c28002aac0080013c34002dac55
:100620000080013c2c002bac0080013c38002eac3b
:100630000080013c30002cac0080013c3c002fac21
:1006400000608840c0000000008009400700293594
:10065000070029390300293500808940c0000000c7
:1006600025f860000800e003000000000000000022
:020000040000fa
:020000041000ea
:1000000000901a3cfc105a27080040030000000032
:020000040000fa
:020000041000ea
:1001000000901a3c24105a27080040030000000009
:020000040000fa
:020000041000ea
:1001800000901a3c10005a270800400300000000ad
:020000040000fa
:020000041000ea
:100200000000023c00004224070040100000023cb5
:1002100000004224050040500000023c3f000070f6
:100220000800e003000000000000023c000042243f
:10023000030040100000000009f84000000000002a
:080240000800e00300000000cb
:020000040000fa
:020000041000ea
:10024800e0ffbd271c00bfaf1800b2af1400b1af6c
:100258001000b0af80bf023c800040ac99aa033cbc
:1002680055666324800043ac6655033caa99633401
:10027800800043ac0808022480bf033c501262ace3
:1002880080bf033c201262ac5105000c0500042419
:1002980080bf023c6000428c003d427ca4000324e5
:1002a8003200431080bf023c6000428c003d427c1b
:1002b8008c000324c100431080bf023c50134394b8
:1002c800090004240430837c501343a4000203244f
:1002d80080bf023ca01243ac0080023480bf043cc3
:1002e800a81282ac80bf043cc01283ac80bf043c1f
:1002f800c81282ac80bf043ce01283ac80bf043ccf
:10030800e81282ac80bf043c001383ac80bf033c7e
:10031800081362ac80bf033c8125023c81894234ca
:10032800900062ac80bf033c7f00023c0f0f422468
:10033800a00062ac80bf033c0319023c17114224a1
:10034800b00062ac80bf033c3333023c33334224f9
:10035800800062ac1c00bf8f1800b28f1400b18ff0
:100368001000b08f0800e0032000bd2780bf033cc9
:100378002000628c00034234200062ac5105000c5e
:10038800050004248cbf023c288042340080033cd2
:1003980022006424000044ac02006324000043ac43
:1003a80080bf023c6000428c021702000100032457
:1003b80032004310f00005245c00000c8500042482
:1003c800010005245c00000c8400042410050524a9
:1003d8005c00000c1e000424006405245c00000c72
:1003e800820004245105000c0200042480bf033c51
:1003f8002000628c044a027c200062ac5105000c8b
:100408000500042480bf023c0a000324300043acea
:1004180080bf023c0000438c0100102444ce037ec0
:10042800000043ac80bf033c4901023c61604224a8
:10043800201262ac5105000c0100042480bf023c6c
:1004480002010324001243ac80bf023c081250ace6
:1004580080bf033c0012628c01004230fdff401453
:1004680080bf023ce000428c01004230360040145c
:1004780080bf103cffff001000000000f2000524c0
:100488005c00000c85000424010005245c00000cbd
:1004980084000424100505245c00000c1e000424bc
:1004a800006005245c00000c820004245105000c47
:1004b8000200042480bf033c2000628c044a027cb2
:1004c800200062ac5105000c0500042480bf023cea
:1004d8000a000324300043ac80bf023c0000448c77
:1004e8000100032444ce647c000044ac80bf043c7b
:1004f8004901023c61604224201282ac80bf023c68
:1005080002010424001244ac80bf023c081243ac30
:1005180080bf033c0012628c01004230fdff401492
:1005280080bf023ce000428c0100423003004014ce
:10053800f4000524ffff0010000000005c00000c20
:100548008500042480bf103c0a11023c0a0a422498
:10055800501202ae5105000c010004245012028e04
:10056800f7f7032424104300501202ae80bf023c68
:10057800e000428c050042300300401480bf033c79
:10058800ffff0010000000004140023ca5804234fb
:10059800301262ac80bf023c4012438c010004243c
:1005a800c418837c401243ac80bf023c0010032473
:1005b800b40043ac41ff001080bf023c80bf123c36
:1005c8002000428e00034234200042ae5105000c48
:1005d800020004248cbf103c288010360080113c97
:1005e80022002226000002ae2000428e044a027c2d
:1005f800200042ae5105000c0200042402003126fe
:10060800000011aef00005245c00000c85000424f5
:10061800010005245c00000c840004241005052456
:100628005c00000c1e000424006005245c00000c23
:100638008200042480bf033c9013628c0400423083
:10064800fdff401080bf023c0012438c04d6037c9f
:10065800001243ac80bf023c0a000324300043acc4
:1006680080bf023c0000438c0100042444ce837cfc
:10067800000043ac80bf053c4901033c6160632432
:100688002012a3ac80bf053c4140033ca5806334e5
:100698003012a3ac80bf053c0a11033c0a0a63244c
:1006a8005012a3ac0000438cc4de837c000043ac32
:1006b80080bf033ce000628c04004230fdff401024
:1006c8000000000080bf033c4012648c010002243b
:1006d800c418447c401264ac80bf033c0a00042464
:1006e800300064ac80bf033c02010424001264acf7
:1006f80080bf033c081262ac4000000040000000cc
:1007080080bf033c0012628c01004230fdff4014a0
:0c07180080bf023ce9fe00100000000061
:020000040000fa
:020000041000ea
:10072400e8ffbd271400bfaf80bf023c6000428ccd
:10073400003d427ca40003240800431080bf023c17
:100744006000428c003d427c8c00032483004310f3
:100754001400bf8f0800e0031800bd2780bf023ccf
:100764006012428c4000427c0500401480bf023c71
:100774006012428c01004230f6ff40101400bf8f1b
:1007840081bf023c85480324083e43ac3080828ffd
:100794000000438cffff6224feff422c805405249a
:1007a4000b2862002705000c140004242c80828f7f
:1007b4000000438cffff6224feff422c288c05348a
:1007c4000b2862002705000c150004242880828f62
:1007d4000000438cffff6224feff422cc800052466
:1007e4000b2862002705000c160004242480828f45
:1007f4000000438cffff6224feff422c8702052485
:100804000b2862002705000c170004242080828f27
:100814000000438cffff6224feff422c800205246b
:100824000b2862002705000c180004246400000c47
:10083400180004241c80828f0000428cffff432494
:10084400feff632c03006014010003241616023c0f
:1008540016164224808083af7c8080af788083af7b
:100864001f1f043c1f1f84242410440000a0043cc8
:100874002520440081bf053c0c3ea4ac748083afaa
:10088400708080af6c8080af0080043c25204400e1
:1008940081bf053c103ea4ac688083af648080af08
:1008a400608083af5c8083af80a0033c251043004d
:1008b40081bf033c1c3e62ac81bf023c1c3e438ca6
:1008c40084b5037c1c3e43ac81bf033c203e628c58
:1008d400feff410400000000203e628c4007427c81
:1008e400faff401000000000203e628c8007427c2a
:1008f400f6ff40143080828f0000428cffff4224b8
:10090400feff422c0e004010000000002c80828f5d
:100914000000428cffff4224feff422c8dff405416
:100924001400bf8f6400000c15000424100045342b
:100934002705000c1500042486ff00101400bf8f47
:100944006400000c14000424ffeb45302705000c60
:1009540014000424eeff00102c80828f6400000c2d
:10096400170004243d0040142480828f0000428c30
:10097400ffff4524feffa52c070c4234870d0324fa
:100984000b184500252860002705000c17000424d7
:10099400252800002705000c180004246400000c1e
:1009a40018000424800a45342705000c1800042488
:1009b4006400000c14000424040045342705000cd2
:1009c400140004241c80828f0000438cffff6224e7
:1009d400feff422c0300401481bf023c1616033c68
:1009e400161663241c3e448cc4ff047c1c3e44ac99
:1009f4001c3e458c0100042484f7857c1c3e45acd8
:100a04001c3e458c0420657c1c3e45ac0022667c63
:100a14001c3e458c0462c57c1c3e45ac0024667caf
:100a24001c3e458c04a4c57c1c3e45ac0026637c5e
:100a34001c3e458c04e6657c1c3e45ac1c3e438c48
:100a440084b5037c1c3e43ac1c3e438cc4bd837cf8
:100a54001c3e43ac3fff00101400bf8f0000458cc8
:080a6400c9ff0010070ca534c6
:020000040000fa
:020000041000ea
:100a6c004c00008028000000000000000000008006
:100a7c002400000001000000203e81bf003e81bf29
:100a8c00043e81bffc6fc5bff86fc5bff46fc5bf17
:100a9c00f06fc5bfec6fc5bfe86fc5bf74000080b9
:100aac000200000000000000240000800100000093
:100abc000100000055000000400581bf64000000eb
:100acc000100000000020000000200000002000013
:100adc000002000000020000000200000002000002
:100aec0000020000000200000002000000020000f2
:100afc0000020000000200000002000000020000e2
:100b0c0000020000000200000002000000020000d1
:100b1c0000020000000200000002000000020000c1
:100b2c000002000000020000b80581bf4800000070
:100b3c0001000000000200000002000000020000a2
:100b4c000002000000020000000200000002000091
:100b5c000002000000020000000200000002000081
:100b6c000002000000020000000200000002000071
:100b7c00000200000002000000020000140681bf09
:100b8c003000000001000000000200000002000024
:100b9c000002000000020000000200000002000041
:100bac000002000000020000000200000002000031
:100bbc000002000000020000500681bf240000006b
:100bcc000100000000020000000200000002000012
:100bdc000002000000020000000200000002000001
:100bec000002000000020000800681bf040000002b
:100bfc0001000000000200008c0681bf28000000ec
:100c0c0001000000000200000002000000020000d1
:100c1c0000020000000200000002000000020000c0
:100c2c00000200000002000000020000b80681bfb4
:100c3c001000000001000000000200000002000093
:100c4c000002000000020000d00681bf140000006a
:100c5c000100000000020000000200000002000081
:100c6c000002000000020000e80681bf60000000e6
:100c7c000100000000020000000200000002000061
:100c8c000002000000020000000200000002000050
:100c9c000002000000020000000200000002000040
:100cac000002000000020000000200000002000030
:100cbc000002000000020000000200000002000020
:100ccc000002000000020000000200000002000010
:100cdc0000020000780781bf100000000100000036
:100cec0000020000000200000002000000020000f0
:100cfc00980781bf04000000010000000002000002
:100d0c00a00781bf180000000100000000020000d5
:100d1c0000020000000200000002000000020000bf
:100d2c0000020000c80781bf1c0000000100000089
:100d3c00000200000002000000020000000200009f
:100d4c0000020000000200000002000028000080e9
:100d5c002400000001000000ffffffffffffffff6a
:100d6c0001000000ffffffffffffffff010000007d
:100d7c00ffffffffffffffff01000000000000006e
:020000040000fa
:020000041000ea
:100d8c000f00a010000000000d00801000000000fb
:100d9c001000c01484bf023c40000324140e43ac6a
:100dac0084bf023c100e478c2000e7301100e0504d
:100dbc0084bf083c2538000017000010256800008f
:100dcc009300e010251000009100c0100a280400c8
:100ddc0084bf023c40000324140e43ac84bf023c8d
:100dec00100e428c20004230080040142b68a700e3
:100dfc0084bf083c84bf033c200e028d100e628c15
:100e0c0020004230fcff40102b68a7002310e500a7
:100e1c000a100d002568400084bf023c000e428c75
:100e2c00000842301000401084bf023c823807009a
:100e3c008228050082680d0084bf033c100e628c72
:100e4c0008004230fdff40102558000025400000ee
:100e5c002550000084bf093cff000e2484bf0c3ccd
:100e6c002400001084bf033c000e428c000442306e
:100e7c00f2ff401084bf033c4238070042280500b3
:100e8c00eeff001042680d00000e828d000442300f
:100e9c00070040508a118a7c40100a002110820001
:100eac0000004294200e22ad1b00001001004a25c8
:100ebc00200e22ad1800001001004a25100e628c85
:100ecc0008004230fdff401000000000100e628c44
:100edc00200042300700401400000000200e228d3c
:100eec0001000825100e628c20004230fbff4010e0
:100efc00000000002600451100000000000e828d4d
:100f0c0000084230e0ff401080100a000a10827c7a
:100f1c00200e22ad01004a25e8ff671100000000f9
:100f2c00100e628c20004230fdff401400000000c7
:100f3c00200e2f8d2b106701eeff401000000000db
:100f4c00000e828d000842300500401080100b000e
:100f5c002110c20000004face6ff001001006b2511
:100f6c00000e828d00044230060040102110cb0090
:100f7c0040100b002110c20000004fa4ddff001038
:100f8c0001006b2500004fa0daff001001006b255b
:100f9c000400a05184bf033c200e2eaddeff0010d8
:100fac00ffffad25100e628c80004230fdff40101b
:100fbc002b10e500040040102328a70084bf033c3d
:100fcc000900001084bf043c0800e0030100022467
:100fdc00200e828c01000825100e628c20004230fd
:100fec00fbff4010000000000700a81000000000ec
:100ffc00100e628c20004230f5ff40100000000003
:10100c00f9ff0010000000000800e00301000224ba
:08101c000800e00300000000e1
:020000040000fa
:020000041000ea
:10001000a8ffbd270400a1af0800a2af0c00a3af4a
:100020001000a4af1400a5af1800a6af1c00a7af26
:100030002000a8af2400a9af2800aaaf2c00abafc6
:100040003000acaf3400adaf3800aeaf3c00afaf66
:100050004000b8af4400b9af4800bfaf1240000045
:100060004c00a8af104000005000a8af00901a3c10
:1000700004165a2700000000006804400060054094
:1000800009f84003000000005000a88f1100000193
:100090004c00a88f130000010400a18f0800a28f5c
:1000a0000c00a38f1000a48f1400a58f1800a68f3a
:1000b0001c00a78f2000a88f2400a98f2800aa8fda
:1000c0002c00ab8f3000ac8f3400ad8f3800ae8f7a
:1000d0003c00af8f4000b88f4400b98f4800bf8ffd
:0c00e0005800bd27c000000018000042be
:020000040000fa
:020000041000ea
:10102400a8ffbd270400a1af0800a2af0c00a3af26
:101034001000a4af1400a5af1800a6af1c00a7af02
:101044002000a8af2400a9af2800aaaf2c00abafa2
:101054003000acaf3400adaf3800aeaf3c00afaf42
:101064004000b8af4400b9af4800bfaf1240000021
:101074004c00a8af104000005000a8af0068044026
:10108400006005400090023c3416422409f84000f8
:10109400000000005000a88f110000014c00a88f30
:1010a400130000010400a18f0800a28f0c00a38f7d
:1010b4001000a48f1400a58f1800a68f1c00a78f02
:1010c4002000a88f2400a98f2800aa8f2c00ab8fa2
:1010d4003000ac8f3400ad8f3800ae8f3c00af8f42
:1010e4004000b88f4400b98f4800bf8f5800bd2717
:0810f400c000000018000042da
:020000040000fa
:020000041000ea
:1010fc00a8ffbd270400a1af0800a2af0c00a3af4e
:10110c001000a4af1400a5af1800a6af1c00a7af29
:10111c002000a8af2400a9af2800aaaf2c00abafc9
:10112c003000acaf3400adaf3800aeaf3c00afaf69
:10113c004000b8af4400b9af4800bfaf1240000048
:10114c004c00a8af104000005000a8af006804404d
:10115c00006005400090023c4c16422409f8400007
:10116c00000000005000a88f110000014c00a88f57
:10117c00130000010400a18f0800a28f0c00a38fa4
:10118c001000a48f1400a58f1800a68f1c00a78f29
:10119c002000a88f2400a98f2800aa8f2c00ab8fc9
:1011ac003000ac8f3400ad8f3800ae8f3c00af8f69
:1011bc004000b88f4400b98f4800bf8f5800bd273e
:0811cc00c00000001800004201
:020000040000fa
:020000041000ea
:1011d40000800340c011637c0100072429006714c8
:1011e40001800240402e437c001080400018804063
:1011f4000028804000308040252000000080043c0e
:101204000000834000508440c000000002000042ff
:1012140000408420ffff6320f9ff601400000000f9
:101224000000043c00008434003084400000053c8d
:101234000000a5240000063c0000c6242538000058
:101244001000a610ff01093c00e029350028894060
:10125400000087400000a88c0400a98c0800aa8c18
:101264000010894000188a4000508840c0000000e7
:10127400020000420c00a5200100e720f0ff00104e
:0c128400000000000800e0030000000073
:020000040000fa
:020000041000ea
:101290002518e0030090083c6c0a08251b0000118b
:1012a000000000000000098d18002011040008252e
:1012b00000000a8d0400082500000b8d0900601154
:1012c0000400082500000c91ffff4a2501000825b5
:1012d00000002ca1fbff401501002925050000108e
:1012e00000000000000020a1ffff4a25fdff40157f
:1012f0000100292503000825fcff0a242440480199
:101300000000098de7ff20150000000025f86000af
:0c1310000800e0030000000000000000e6
:020000040000fa
:020000041000ea
:10131c0080bf023c0000438cc418037c000043ac2b
:10132c0082bf023c00040324040043ac800002246e
:10133c0082bf033c300162ac82bf033c140162ac3f
:10134c0082bf033c040162ac82bf023c0002032456
:10135c00480243ac82bf023c00700324480343acf8
:10136c0082bf023c1a000324300343ac82bf023c10
:10137c000a000324140343ac80bf023c0c0003247a
:10138c00a41843ac80bf023c04000324d01a43ac25
:08139c000800e003000000005e
:020000040000fa
:020000041000ea
:1013a40081bf023c2000053cd40045ac4000043c15
:1013b400d40044ac8000033cd40043ac84bf023c62
:1013c400000e40ac84bf023c200e428c81bf023c24
:1013d400540045ac540044ac540043ac84bf023cbc
:1013e40018000324300e43ac84bf023c40000324a5
:1013f400140e43ac84bf023c8100033c20016324ef
:10140400080e43ac05000324080e43ac00800334eb
:0c141400080e43ac0800e00300000000dc
:020000040000fa
:020000041000ea
:10142000e0ffbd271c00bfaf1800b2af1400b1af82
:101430001000b0af4400000c2520000082bf023c29
:1014400008000324340343ac82bf023c020003249f
:10145000380343ac82bf103c020012240800112460
:101460003b00000c00000000fdff401401000524bb
:101470007205000c34808427848082970100422406
:10148000ffff4230f6ff4014848082a73c0312ae77
:0c1490003c0311aef2ff00100000000051
:020000040000fa
:020000041000ea
:10011000e8ffbd271400bfaf00606241c0000000cf
:10012000c901000c000000009200000c000000005b
:1001300081bf023c0024438c050004240418837c06
:10014000002443acc704000c000000007a05000c3a
:1001500000000000e904000c000000006405000c31
:10016000000000001400bf8f0800e0031800bd2746
:020000040000fa
:020000041000ea
:10019000f8ffbd270400bfaf002404000001023cab
:1001a000252082001480828f000044ac0048044067
:1001b0000700033c20a163340048024023104400a0
:1001c0002b104300fcff40141880828f0000428ceb
:1001d00080004330ffff60100400bf8f0214020054
:0801e0000800e0030800bd2740
:020000040000fa
:020000041000ea
:10149c00f8ffbd270400bfaf00240400ffffa530f8
:1014ac00252085001480828f000044ac0048044045
:1014bc000700033c20a16334004802402310440081
:1014cc002b104300fcff40141880828f0000428ccc
:1014dc0080004230ffff40100400bf8f0800e00383
:0414ec000800bd2710
:020000040000fa
:020000041000ea
:1014f0000000043ce8ffbd270000842403008010a6
:101500001400bfaf09f88000000000000000843024
:101510000000a5300090083c2014082509f80001bf
:10152000000000000000023c0000422403004010c4
:101530000000000009f8400000000000f9ff001062
:0415400000000000a7
:020000040000fa
:020000041000ea
:10154400f8ffbd270400bfaf401004002110440081
:101554008019020021104300801002002110440071
:101564008010020021204400402104000048034070
:1015740000480240231043002b104400fcff401499
:0c1584000400bf8f0800e0030800bd2732
:020000040000fa
:020000041000ea
:1015900081bf023c00100324080043ac81bf033c20
:1015a0005476023c10324224100062ac25206000c8
:1015b000251840001000828cfeff4314000000003c
:0815c0000800e0030000000038
:020000040000fa
:020000041000ea
:1015c800e8ffbd271400bfaf253800006303000cf7
:1015d800253000001400bf8f0800e0031800bd2765
:020000040000fa
:020000041000ea
:1015e80082bf023c02000324340343ac08000324f6
:0c15f800340343ac0800e00300000000d6
:020000040000fa
:020000041000ea
:1001e8000000200201000003000000000b080000ce
:0801f8000100000000000000fe
:020000040000fa
:020000041000ea
:10160400f8ffbd270400bfaf00680240007002402d
:08161400ffff001000000000c0
:020000040000fa
:020000041000ea
:10161c00f8ffbd270400bfaf006802400070024015
:08162c00ffff001000000000a8
:020000040000fa
:020000041000ea
:10163400f8ffbd270400bfaf0068024000700240fd
:08164400ffff00100000000090
:020000040000fa
:020000041000ea
:10164c00f8ffbd270400bfaf0068024000700240e5
:08165c00ffff00100000000078
:020000040000fa
:020000041000ea
:1016640000601a40bfff1b3cffff7b3724d05b03a5
:0816740000609a4018000042da
:020000040000fa
:020000041000ea
:1000ec0084bf023c100e428c800042380800e003b2
:0400fc00c001427c81
:020000040000fa
:020000041000ea
:100170008cbf023c288042340800e003000040ac01
:020000040000fa
:020000041000ea
:08167c000800e003000000007b
:020000040000fa
:020000041000ea
:081684000800e0030000000073
:00000001FF
